{
  "contractName": "Vote",
  "abi": [
    {
      "constant": true,
      "inputs": [],
      "name": "Cand",
      "outputs": [
        {
          "name": "",
          "type": "string"
        }
      ],
      "payable": false,
      "stateMutability": "view",
      "type": "function"
    },
    {
      "constant": true,
      "inputs": [],
      "name": "condidatesCount",
      "outputs": [
        {
          "name": "",
          "type": "uint256"
        }
      ],
      "payable": false,
      "stateMutability": "view",
      "type": "function"
    },
    {
      "constant": true,
      "inputs": [
        {
          "name": "",
          "type": "uint256"
        }
      ],
      "name": "candidates",
      "outputs": [
        {
          "name": "id",
          "type": "uint256"
        },
        {
          "name": "name",
          "type": "string"
        },
        {
          "name": "voteCount",
          "type": "uint256"
        }
      ],
      "payable": false,
      "stateMutability": "view",
      "type": "function"
    },
    {
      "inputs": [],
      "payable": false,
      "stateMutability": "nonpayable",
      "type": "constructor"
    }
  ],
  "bytecode": "0x608060405234801561001057600080fd5b506040518060400160405280600781526020017f6b68616f756c61000000000000000000000000000000000000000000000000008152506002908051906020019061005c9291906101ec565b506100a16040518060400160405280600b81526020017f43616e646964617465203100000000000000000000000000000000000000000081525061017260201b60201c565b6100e56040518060400160405280600b81526020017f43616e646964617465203200000000000000000000000000000000000000000081525061017260201b60201c565b6101296040518060400160405280600b81526020017f43616e646964617465203300000000000000000000000000000000000000000081525061017260201b60201c565b61016d6040518060400160405280600b81526020017f43616e646964617465203400000000000000000000000000000000000000000081525061017260201b60201c565b610311565b600080815480929190600101919050555060405180606001604052806000548152602001828152602001600081525060016000805481526020019081526020016000206000820151816000015560208201518160010190805190602001906101db92919061026c565b506040820151816002015590505050565b828054600181600116156101000203166002900490600052602060002090601f016020900481019282601f1061022d57805160ff191683800117855561025b565b8280016001018555821561025b579182015b8281111561025a57825182559160200191906001019061023f565b5b50905061026891906102ec565b5090565b828054600181600116156101000203166002900490600052602060002090601f016020900481019282601f106102ad57805160ff19168380011785556102db565b828001600101855582156102db579182015b828111156102da5782518255916020019190600101906102bf565b5b5090506102e891906102ec565b5090565b61030e91905b8082111561030a5760008160009055506001016102f2565b5090565b90565b61032e806103206000396000f3fe608060405234801561001057600080fd5b50600436106100415760003560e01c80630627d40214610046578063210e4cbd146100c95780633477ee2e146100e7575b600080fd5b61004e61019c565b6040518080602001828103825283818151815260200191508051906020019080838360005b8381101561008e578082015181840152602081019050610073565b50505050905090810190601f1680156100bb5780820380516001836020036101000a031916815260200191505b509250505060405180910390f35b6100d161023a565b6040518082815260200191505060405180910390f35b610113600480360360208110156100fd57600080fd5b8101908080359060200190929190505050610240565b6040518084815260200180602001838152602001828103825284818151815260200191508051906020019080838360005b8381101561015f578082015181840152602081019050610144565b50505050905090810190601f16801561018c5780820380516001836020036101000a031916815260200191505b5094505050505060405180910390f35b60028054600181600116156101000203166002900480601f0160208091040260200160405190810160405280929190818152602001828054600181600116156101000203166002900480156102325780601f1061020757610100808354040283529160200191610232565b820191906000526020600020905b81548152906001019060200180831161021557829003601f168201915b505050505081565b60005481565b6001602052806000526040600020600091509050806000015490806001018054600181600116156101000203166002900480601f0160208091040260200160405190810160405280929190818152602001828054600181600116156101000203166002900480156102f25780601f106102c7576101008083540402835291602001916102f2565b820191906000526020600020905b8154815290600101906020018083116102d557829003601f168201915b505050505090806002015490508356fea165627a7a72305820b0491393a8dab71e4e4732e74dd3ea9779cf6ff999a8baa8a627d6af8b668c850029",
  "source": "pragma solidity ^0.5.0;\n\ncontract Vote {\n\n  struct Candidate \n   { \n      uint id;\n      string name;\n      uint voteCount; \n    }\n    uint public condidatesCount;\n\n    mapping(uint => Candidate) public candidates;\n\n    string public Cand;\n\n   constructor() public \n   {\n        Cand = \"khaoula\";\n        addCondidate(\"Candidate 1\");\n        addCondidate(\"Candidate 2\");\n        addCondidate(\"Candidate 3\");\n        addCondidate(\"Candidate 4\");\n\n\n        \n   }\n\n  function addCondidate (string memory _name) private \n  {\n      condidatesCount ++;\n      candidates[condidatesCount] = Candidate(condidatesCount, _name, 0);\n  }\n\n  \n\n}\n",
  "sourcePath": "/Users/khawla/Desktop/truffleProject/contracts/Vote.sol",
  "compiler": {
    "name": "solc",
    "version": "0.5.8+commit.23d335f2.Emscripten.clang"
  },
  "schemaVersion": "3.0.16",
  "updatedAt": "2019-10-08T11:27:08.377Z",
  "devdoc": {
    "methods": {}
  },
  "userdoc": {
    "methods": {}
  }
}